:020000040800F2
:1000000000280020650B0008090B00080F0B0008F2
:10001000150B00081B0B0008210B00080000000056
:10002000000000000000000000000000270B000896
:10003000330B0008000000003F0B00084B0B0008CA
:10004000AD0B0008AD0B0008AD0B0008AD0B0008B0
:10005000AD0B0008AD0B0008AD0B0008AD0B0008A0
:10006000AD0B0008AD0B0008AD0B0008AD0B000890
:10007000AD0B0008AD0B0008AD0B0008AD0B000880
:10008000AD0B0008AD0B0008AD0B0008AD0B000870
:10009000AD0B0008AD0B0008AD0B0008AD0B000860
:1000A000AD0B0008AD0B0008AD0B0008AD0B000850
:1000B000AD0B0008AD0B000800000000AD0B000800
:1000C000AD0B00080000000000000000AD0B0008B0
:1000D00000000000AD0B0008AD0B000800000000A0
:1000E000AD0B0008AD0B0008AD0B000800000000D0
:1000F0000000000000000000000000000000000000
:0C01000000000000000000005FF808F1A3
:10010C0010B5054C237833B9044B13B10448AFF345
:10011C0000800123237010BD0C00002000000000A3
:10012C00D419000808B5034B1BB103490348AFF3BE
:10013C00008008BD0000000010000020D419000849
:10014C0080B582B000AF78607B68002B24D1002290
:10015C000821C74801F00CF800221021C44801F016
:10016C0007F800222021C24801F002F800224021A9
:10017C00BF4800F0FDFF00228021BD4800F0F8FFD1
:10018C0000224FF48071BA4800F0F2FF01224FF4C4
:10019C000071B74800F0ECFF7B68012B24D10122E1
:1001AC000821B34800F0E4FF00221021B04800F011
:1001BC00DFFF00222021AE4800F0DAFF01224021AF
:1001CC00AB4800F0D5FF01228021A94800F0D0FFF8
:1001DC0001224FF48071A64800F0CAFF01224FF4AF
:1001EC000071A34800F0C4FF7B68022B24D10022CD
:1001FC0008219F4800F0BCFF002210219C4800F011
:10020C00B7FF012220219A4800F0B2FF00224021C2
:10021C00974800F0ADFF00228021954800F0A8FF20
:10022C0001224FF48071924800F0A2FF00224FF49B
:10023C0000718F4800F09CFF7B68032B24D10022B7
:10024C0008218B4800F094FF00221021884800F010
:10025C008FFF00222021864800F08AFF00224021D7
:10026C00834800F085FF01228021814800F080FF47
:10027C0001224FF480717E4800F07AFF00224FF487
:10028C0000717B4800F074FF7B68042B24D10122A1
:10029C000821774800F06CFF00221021744800F010
:1002AC0067FF00222021724800F062FF01224021EA
:1002BC006F4800F05DFF012280216D4800F058FF6F
:1002CC0000224FF480716A4800F052FF00224FF474
:1002DC000071674800F04CFF7B68052B24D100228D
:1002EC000821634800F044FF01221021604800F00F
:1002FC003FFF002220215E4800F03AFF00224021FF
:10030C005B4800F035FF01228021594800F030FF96
:10031C0000224FF48071564800F02AFF00224FF45F
:10032C000071534800F024FF7B68062B24D1002277
:10033C0008214F4800F01CFF012210214C4800F00E
:10034C0017FF002220214A4800F012FF0022402112
:10035C00474800F00DFF00228021454800F008FFBF
:10036C0000224FF48071424800F002FF00224FF44B
:10037C0000713F4800F0FCFE7B68072B24D1002263
:10038C0008213B4800F0F4FE00221021384800F010
:10039C00EFFE00222021364800F0EAFE0122402127
:1003AC00334800F0E5FE01228021314800F0E0FEE8
:1003BC0001224FF480712E4800F0DAFE01224FF436
:1003CC0000712B4800F0D4FE7B68082B24D100224E
:1003DC000821274800F0CCFE00221021244800F010
:1003EC00C7FE00222021224800F0C2FE002240213C
:1003FC001F4800F0BDFE002280211D4800F0B8FE11
:10040C0000224FF480711A4800F0B2FE00224FF423
:10041C000071174800F0ACFE7B68092B24D1002238
:10042C000821134800F0A4FE00221021104800F00F
:10043C009FFE002220210E4800F09AFE012240214E
:10044C000B4800F095FE01228021094800F090FE37
:10045C0000224FF48071064800F08AFE00224FF40F
:10046C000071034800F084FE00BF0837BD4680BD14
:10047C00000C014080B582B000AF78607B68002B27
:10048C0026D100220121CE4800F072FE002202216A
:10049C00CB4800F06DFE00220421C94800F068FE34
:1004AC0000224FF48071C64800F062FE00224FF427
:1004BC000071C34800F05CFE00224FF48061C0481C
:1004CC0000F056FE01224FF40061BD4800F050FED2
:1004DC007B68012B26D101220121B94800F048FE8E
:1004EC0000220221B64800F043FE00220421B44849
:1004FC0000F03EFE01224FF48071B14800F038FE4E
:10050C0001224FF40071AE4800F032FE01224FF48C
:10051C008061AB4800F02CFE01224FF40061A8482A
:10052C0000F026FE7B68022B26D100220121A44874
:10053C0000F01EFE00220221A14800F019FE01224B
:10054C0004219F4800F014FE00224FF480719C4857
:10055C0000F00EFE00224FF40071994800F008FEE6
:10056C0001224FF48061964800F002FE00224FF405
:10057C000061934800F0FCFD7B68032B26D1002220
:10058C0001218F4800F0F4FD002202218C4800F07C
:10059C00EFFD002204218A4800F0EAFD00224FF40E
:1005AC008071874800F0E4FD01224FF4007184480B
:1005BC0000F0DEFD01224FF48061814800F0D8FD8F
:1005CC0000224FF400617E4800F0D2FD7B68042BC2
:1005DC0026D1012201217A4800F0CAFD0022022115
:1005EC00774800F0C5FD00220421754800F0C0FDDD
:1005FC0001224FF48071724800F0BAFD01224FF4D1
:10060C0000716F4800F0B4FD00224FF480616C481B
:10061C0000F0AEFD00224FF40061694800F0A8FD27
:10062C007B68052B26D100220121654800F0A0FD36
:10063C0001220221624800F09BFD00220421604847
:10064C0000F096FD00224FF480715D4800F090FDA3
:10065C0001224FF400715A4800F08AFD00224FF439
:10066C008061574800F084FD00224FF4006154482B
:10067C0000F07EFD7B68062B26D10022012150481C
:10068C0000F076FD012202214D4800F071FD0022A0
:10069C0004214B4800F06CFD00224FF48071484857
:1006AC0000F066FD00224FF40071454800F060FD3B
:1006BC0000224FF48061424800F05AFD00224FF4B2
:1006CC0000613F4800F054FD7B68072B26D10022C7
:1006DC0001213B4800F04CFD00220221384800F07B
:1006EC0047FD00220421364800F042FD01224FF460
:1006FC008071334800F03CFD01224FF4007130480A
:10070C0000F036FD01224FF480612D4800F030FDE1
:10071C0001224FF400612A4800F02AFD7B68082B67
:10072C0026D100220121264800F022FD00220221C0
:10073C00234800F01DFD00220421214800F018FD83
:10074C0000224FF480711E4800F012FD00224FF47D
:10075C0000711B4800F00CFD00224FF4806118481A
:10076C0000F006FD00224FF40061154800F000FD7A
:10077C007B68092B29D100220121114800F0F8FCDB
:10078C00002202210E4800F0F3FC002204210C4848
:10079C0000F0EEFC01224FF48071094800F0E8FCF7
:1007AC0001224FF40071064800F0E2FC00224FF4E5
:1007BC008061034800F0DCFC00224FF4006101E092
:1007CC0000080140034800F0D3FC00BF0837BD46C9
:1007DC0080BD00BF0008014080B584B000AF00F0C0
:1007EC00E1F900F0D1F800F00BF90023FB600023D5
:1007FC00BB6000237B60FB68012B25DC01222021E0
:10080C005F4800F0B5FC002240215D4800F0B0FCD0
:10081C00002280215A4800F0ABFCFB68C3F10403B2
:10082C00BB6000220121574800F0A2FC01220221EA
:10083C00544800F09DFC00220421524800F098FC22
:10084C00FB68C3F101037B60FB68012B28DDFB68AF
:10085C00042B25DC01222021494800F089FC0022D0
:10086C004021474800F084FC00228021444800F0DD
:10087C007FFCFB68C3F10403BB60002201214148EB
:10088C0000F076FC002202213E4800F071FC0122AF
:10089C0004213C4800F06CFCFB68C3F104037B6052
:1008AC00FB68062B28DCFB68042B25DD00222021AD
:1008BC00334800F05DFC01224021314800F058FC27
:1008CC00002280212E4800F053FCFB68C3F1070383
:1008DC00BB60012201212B4800F04AFC00220221BE
:1008EC00284800F045FC00220421264800F040FC7A
:1008FC00FB68C3F109037B60FB68092B28DCFB68F0
:10090C00062B25DD002220211D4800F031FC0022A1
:10091C0040211B4800F02CFC01228021184800F0DB
:10092C0027FCFB68C3F10903BB60012201211548B8
:10093C0000F01EFC00220221124800F019FC0022DB
:10094C000421104800F014FCFB68C3F109037B6020
:10095C00FB68092B05DD0023FB600023BB60002333
:10096C007B60FB680133FB60B868FFF7E9FB7868D4
:10097C00FFF780FD4FF47A7000F076F93BE700BF8B
:10098C0000080140000C014080B590B000AF07F1A9
:10099C00180328220021184601F00EF83B1D0022F6
:1009AC001A605A609A60DA601A610223BB610123F3
:1009BC00BB621023FB6200237B6307F1180318460C
:1009CC0000F0EEFB0346002B01D000F06FF80F2374
:1009DC007B600023BB600023FB6000233B61002392
:1009EC007B613B1D0021184600F05CFE0346002B8A
:1009FC0001D000F05BF800BF4037BD4680BD000061
:100A0C0080B586B000AF07F1080300221A605A6067
:100A1C009A60DA60224B9B69214A43F0040393618C
:100A2C001F4B9B6903F004037B607B681C4B9B6929
:100A3C001B4A43F008039361194B9B6903F00803AD
:100A4C003B603B68002240F6E771164800F090FBD3
:100A5C00002240F2FF31144800F08AFB40F6E773A5
:100A6C00BB600123FB6000233B6102237B6107F128
:100A7C00080319460B4800F0FFF940F2FF33BB6046
:100A8C000123FB6000233B6102237B6107F1080318
:100A9C001946054800F0F0F900BF1837BD4680BD77
:100AAC000010024000080140000C014080B400AF6F
:100ABC0072B600BFFEE7000080B483B000AF0E4BEF
:100ACC009B690D4A43F0010393610B4B9B6903F047
:100ADC0001037B607B68084BDB69074A43F080535A
:100AEC00D361054BDB6903F080533B603B6800BF6F
:100AFC000C37BD4680BC70470010024080B400AF7C
:100B0C00FEE780B400AFFEE780B400AFFEE780B430
:100B1C0000AFFEE780B400AFFEE780B400AF00BFCB
:100B2C00BD4680BC704780B400AF00BFBD4680BCE2
:100B3C00704780B400AF00BFBD4680BC704780B525
:100B4C0000AF00F075F800BF80BD80B400AF00BFEF
:100B5C00BD4680BC704700000C480D490D4A00236F
:100B6C0002E0D458C4500433C4188C42F9D30A4A56
:100B7C000A4C002301E013600432A242FBD3FFF7BE
:100B8C00E4FF00F0F5FEFFF727FE704700000020A1
:100B9C000C000020141A00080C0000202C0000206F
:100BAC00FEE7000080B500AF084B1B68074A43F016
:100BBC0010031360032000F02BF90F2000F008F84D
:100BCC00FFF77AFF0023184680BD00BF00200240CB
:100BDC0080B582B000AF7860124B1A68124B1B784C
:100BEC0019464FF47A73B3FBF1F3B2FBF3F31846E7
:100BFC0000F035F90346002B01D001230EE07B6891
:100C0C000F2B0AD8002279684FF0FF3000F00BF957
:100C1C00064A7B681360002300E00123184608375E
:100C2C00BD4680BD0000002008000020040000200C
:100C3C0080B400AF054B1B781A46054B1B68134458
:100C4C00034A136000BFBD4680BC704708000020FB
:100C5C002800002080B400AF024B1B681846BD462C
:100C6C0080BC70472800002080B584B000AF78604D
:100C7C00FFF7F0FFB8607B68FB60FB68B3F1FF3FE8
:100C8C0005D00A4B1B781A46FB681344FB6000BF67
:100C9C00FFF7E0FF0246BB68D31AFA689A42F7D80E
:100CAC0000BF00BF1037BD4680BD00BF080000204C
:100CBC0080B485B000AF78607B6803F00703FB60FD
:100CCC000C4BDB68BB60BA684FF6FF031340BB608C
:100CDC00FB681A02BB68134343F0BF6343F4003351
:100CEC00BB60044ABB68D36000BF1437BD4680BCF0
:100CFC00704700BF00ED00E080B400AF044BDB6830
:100D0C001B0A03F007031846BD4680BC704700BFA2
:100D1C0000ED00E080B483B000AF03463960FB7196
:100D2C0097F90730002B0ADB3B68DAB20C4997F9CC
:100D3C0007301201D2B20B4483F800230AE03B685F
:100D4C00DAB20849FB7903F00F03043B1201D2B26B
:100D5C000B441A7600BF0C37BD4680BC704700BFF1
:100D6C0000E100E000ED00E080B489B000AFF86075
:100D7C00B9607A60FB6803F00703FB61FB69C3F1A0
:100D8C000703042B28BF0423BB61FB690433062B28
:100D9C0002D9FB69033B00E000237B614FF0FF327B
:100DAC00BB6902FA03F3DA43BB681A407B699A40C9
:100DBC004FF0FF317B6901FA03F3D9437B680B4099
:100DCC00134318462437BD4680BC704780B582B0AB
:100DDC0000AF78607B68013BB3F1807F01D30123C6
:100DEC000FE00A4A7B68013B53600F214FF0FF3044
:100DFC00FFF790FF054B00229A60044B07221A6004
:100E0C00002318460837BD4680BD00BF10E000E047
:100E1C0080B582B000AF78607868FFF749FF00BFFB
:100E2C000837BD4680BD80B586B000AF0346B960BB
:100E3C007A60FB7300237B61FFF75EFF78617A6851
:100E4C00B9687869FFF790FF024697F90F301146A1
:100E5C001846FFF75FFF00BF1837BD4680BD80B551
:100E6C0082B000AF78607868FFF7B0FF0346184691
:100E7C000837BD4680BD000080B48BB000AF7860F1
:100E8C00396000237B6200233B6261E101227B6AB3
:100E9C0002FA03F3FB613B681B68FA691340BB6100
:100EAC00BA69FB699A4240F050813B685B68974A8B
:100EBC0093425ED0954A934275D8954A934258D046
:100ECC00934A93426FD8934A934252D0914A934299
:100EDC0069D8914A93424CD08F4A934263D88F4A37
:100EEC00934246D08D4A93425DD8122B2AD8122BAE
:100EFC0059D801A252F823F07F0F0008590F0008AF
:100F0C006B0F0008AD0F0008B30F0008B30F0008FB
:100F1C00B30F0008B30F0008B30F0008B30F00089D
:100F2C00B30F0008B30F0008B30F0008B30F00088D
:100F3C00B30F0008B30F0008B30F0008610F0008CF
:100F4C00750F0008764A934213D02CE03B68DB689F
:100F5C003B6229E03B68DB6804333B6224E03B687E
:100F6C00DB6808333B621FE03B68DB680C333B6299
:100F7C001AE03B689B68002B02D104233B6213E010
:100F8C003B689B68012B05D108233B627B68FA699F
:100F9C001A6109E008233B627B68FA695A6103E035
:100FAC0000233B6200E000BFBB69FF2B01D87B68CC
:100FBC0001E07B6804337B61BB69FF2B02D87B6A41
:100FCC009B0002E07B6A083B9B003B617B691A68D3
:100FDC000F213B6901FA03F3DB431A40396A3B6981
:100FEC0001FA03F31A437B691A603B685B6803F0F0
:100FFC008053002B00F0A9804A4B9B69494A43F06F
:10100C0001039361474B9B6903F00103BB60BB6811
:10101C00454A7B6A9B08023352F82330FB607B6A9B
:10102C0003F003039B000F2202FA03F3DB43FA687D
:10103C001340FB607B683D4A93420DD07B683C4A71
:10104C00934207D07B683B4A934201D1022304E0D0
:10105C00032302E0012300E000237A6A02F003027A
:10106C0092009340FA681343FB602F497B6A9B08FC
:10107C000233FA6841F823203B685B6803F4803341
:10108C00002B06D02C4B1A682B49BB6913430B6001
:10109C0006E0294B1A68BB69DB43274913400B60F8
:1010AC003B685B6803F40033002B06D0224B5A6874
:1010BC002149BB6913434B6006E01F4B5A68BB695F
:1010CC00DB431D4913404B603B685B6803F48013A2
:1010DC00002B06D0184B9A681749BB6913438B60D9
:1010EC0006E0154B9A68BB69DB43134913408B60D0
:1010FC003B685B6803F40013002B1FD00E4BDA68BF
:10110C000D49BB691343CB601FE000BF00003210D8
:10111C0000003110000022100000211000001210FD
:10112C0000001110001002400000014000080140B6
:10113C00000C014000100140000401400B4BDA6828
:10114C00BB69DB4309491340CB607B6A01337B628B
:10115C003B681A687B6A22FA03F3002B7FF496AE85
:10116C0000BF00BF2C37BD4680BC70470004014057
:10117C0080B483B000AF78600B467B8013467B70E5
:10118C007B78002B03D07A887B681A6103E07B881C
:10119C001A047B681A6100BF0C37BD4680BC7047CF
:1011AC0080B586B000AF78607B68002B01D101233D
:1011BC0072E27B681B6803F00103002B00F0878050
:1011CC00924B5B6803F00C03042B0CD08F4B5B68C9
:1011DC0003F00C03082B12D18C4B5B6803F48033A7
:1011EC00B3F5803F0BD1894B1B6803F40033002B04
:1011FC006CD07B685B68002B68D101234CE27B6868
:10120C005B68B3F5803F06D1804B1B687F4A43F483
:10121C00803313602EE07B685B68002B0CD17B4B1A
:10122C001B687A4A23F480331360784B1B68774A27
:10123C0023F4802313601DE07B685B68B3F5A02F5B
:10124C000CD1724B1B68714A43F4802313606F4BB3
:10125C001B686E4A43F4803313600BE06B4B1B68C6
:10126C006A4A23F480331360684B1B68674A23F483
:10127C00802313607B685B68002B13D0FFF7EAFCBC
:10128C00386108E0FFF7E6FC02463B69D31A642B91
:10129C0001D9032300E25D4B1B6803F40033002BE0
:1012AC00F0D014E0FFF7D6FC386108E0FFF7D2FC71
:1012BC0002463B69D31A642B01D90323ECE1534B4F
:1012CC001B6803F40033002BF0D100E000BF7B68F7
:1012DC001B6803F00203002B63D04C4B5B6803F0DC
:1012EC000C03002B0BD0494B5B6803F00C03082B51
:1012FC001CD1464B5B6803F48033002B16D1434B57
:10130C001B6803F00203002B05D07B681B69012BC3
:10131C0001D00123C0E13D4B1B6823F0F8027B6830
:10132C005B69DB00394913430B603AE07B681B694E
:10133C00002B20D0364B01221A60FFF78BFC386152
:10134C0008E0FFF787FC02463B69D31A022B01D950
:10135C000323A1E12D4B1B6803F00203002BF0D0FB
:10136C002A4B1B6823F0F8027B685B69DB0027497A
:10137C0013430B6015E0264B00221A60FFF76AFC42
:10138C00386108E0FFF766FC02463B69D31A022B72
:10139C0001D9032380E11D4B1B6803F00203002BD2
:1013AC00F0D17B681B6803F00803002B3AD07B68F4
:1013BC009B69002B19D0174B01221A60FFF74AFCCE
:1013CC00386108E0FFF746FC02463B69D31A022B52
:1013DC0001D9032360E10D4B5B6A03F00203002B80
:1013EC00F0D0012000F0A6FA1CE00A4B00221A6093
:1013FC00FFF730FC38610FE0FFF72CFC02463B692D
:10140C00D31A022B08D9032346E100BF0010024077
:10141C000000424280044242924B5B6A03F002039A
:10142C00002BE9D17B681B6803F00403002B00F050
:10143C00A6800023FB758B4BDB6903F08053002BDC
:10144C000DD1884BDB69874A43F08053D361854BC0
:10145C00DB6903F08053BB60BB680123FB75824BD7
:10146C001B6803F48073002B18D17F4B1B687E4ADA
:10147C0043F480731360FFF7EDFB386108E0FFF76E
:10148C00E9FB02463B69D31A642B01D9032303E120
:10149C00754B1B6803F48073002BF0D07B68DB6802
:1014AC00012B06D16F4B1B6A6E4A43F0010313628A
:1014BC002DE07B68DB68002B0CD16A4B1B6A694AF8
:1014CC0023F001031362674B1B6A664A23F0040383
:1014DC0013621CE07B68DB68052B0CD1614B1B6A2B
:1014EC00604A43F0040313625E4B1B6A5D4A43F08F
:1014FC00010313620BE05B4B1B6A5A4A23F0010396
:10150C001362584B1B6A574A23F0040313627B681F
:10151C00DB68002B15D0FFF79DFB38610AE0FFF765
:10152C0099FB02463B69D31A41F28832934201D9A6
:10153C000323B1E04B4B1B6A03F00203002BEED0EC
:10154C0014E0FFF787FB38610AE0FFF783FB0246E4
:10155C003B69D31A41F28832934201D903239BE0B1
:10156C00404B1B6A03F00203002BEED1FB7D012BD9
:10157C0005D13C4BDB693B4A23F08053D3617B683C
:10158C00DB69002B00F08780364B5B6803F00C03A3
:10159C00082B61D07B68DB69022B46D1334B0022D0
:1015AC001A60FFF757FB386108E0FFF753FB024660
:1015BC003B69D31A022B01D903236DE0294B1B681D
:1015CC0003F00073002BF0D17B681B6AB3F5803FEE
:1015DC0008D1244B5B6823F400327B689B6821495B
:1015EC0013434B601F4B5B6823F474127B68196ABE
:1015FC007B685B6A0B431B4913434B601B4B0122FB
:10160C001A60FFF727FB386108E0FFF723FB02465F
:10161C003B69D31A022B01D903233DE0114B1B6804
:10162C0003F00073002BF0D035E0104B00221A6051
:10163C00FFF710FB386108E0FFF70CFB02463B6933
:10164C00D31A022B01D9032326E0064B1B6803F0A7
:10165C000073002BF0D11EE07B68DB69012B07D1F6
:10166C00012319E00010024000700040600042426B
:10167C000B4B5B68FB60FB6803F480327B681B6A76
:10168C009A4206D1FB6803F470127B685B6A9A423B
:10169C0001D0012300E0002318461837BD4680BD59
:1016AC000010024080B584B000AF786039607B6870
:1016BC00002B01D10123D0E06A4B1B6803F0070318
:1016CC003A689A4210D9674B1B6823F007026549A8
:1016DC003B6813430B60634B1B6803F007033A68CA
:1016EC009A4201D00123B8E07B681B6803F0020327
:1016FC00002B20D07B681B6803F00403002B05D063
:10170C00594B5B68584A43F4E06353607B681B6831
:10171C0003F00803002B05D0534B5B68524A43F48B
:10172C0060535360504B5B6823F0F0027B689B68FE
:10173C004D4913434B607B681B6803F00103002B7E
:10174C0040D07B685B68012B07D1474B1B6803F4C7
:10175C000033002B15D101237FE07B685B68022BE3
:10176C0007D1414B1B6803F00073002B09D10123F7
:10177C0073E03D4B1B6803F00203002B01D10123E6
:10178C006BE0394B5B6823F003027B685B6836497E
:10179C0013434B60FFF75EFAF8600AE0FFF75AFA62
:1017AC000246FB68D31A41F28832934201D90323D3
:1017BC0053E02D4B5B6803F00C027B685B689B006D
:1017CC009A42EBD1274B1B6803F007033A689A4205
:1017DC0010D2244B1B6823F0070222493B681343A9
:1017EC000B60204B1B6803F007033A689A4201D048
:1017FC00012332E07B681B6803F00403002B08D044
:10180C00194B5B6823F4E0627B68DB681649134371
:10181C004B607B681B6803F00803002B09D0124B4C
:10182C005B6823F460527B681B69DB000E49134331
:10183C004B6000F021F802460B4B5B681B0903F070
:10184C000F030A49CB5C22FA03F3094A1360094BD4
:10185C001B681846FFF7BCF9002318461037BD4625
:10186C0080BD00BF0020024000100240FC1900089F
:10187C00000000200400002090B48AB000AF294B77
:10188C003C1D0FCB84E80F0040F201233B8000236A
:10189C00FB610023BB6100237B6200237B6100237F
:1018AC003B62214B5B68FB61FB6903F00C03042B6F
:1018BC0002D0082B03D02BE01C4B3B622BE0FB69C6
:1018CC009B0C03F00F0328333B4413F8243C7B613F
:1018DC00FB6903F48033002B12D0134B5B685B0C59
:1018EC0003F0010328333B4413F8283CBB617B69AC
:1018FC000E4A03FB02F2BB69B2FBF3F37B6204E01A
:10190C007B690B4A02FB03F37B627B6A3B6202E05E
:10191C00064B3B6200BF3B6A18462837BD4690BC5D
:10192C00704700BFEC1900080010024000127A004A
:10193C0000093D0080B485B000AF78600A4B1B688D
:10194C000A4AA2FB03235B0A7A6802FB03F3FB60DF
:10195C0000BFFB685A1EFA60002BF9D100BF00BF14
:10196C001437BD4680BC704700000020D34D621078
:10197C0070B500260C4D0D4C641BA410A64209D169
:10198C0000F022F800260A4D0A4C641BA410A64253
:10199C0005D170BD55F8043B98470136EEE755F874
:1019AC00043B98470136F2E70C1A00080C1A0008A1
:1019BC000C1A0008101A000803460244934200D186
:1019CC00704703F8011BF9E7F8B500BFF8BC08BC79
:1019DC009E467047F8B500BFF8BC08BC9E467047E1
:1019EC0002030405060708090A0B0C0D0E0F101054
:1019FC0000000000000000000102030406070809B3
:041A0C00310100089C
:041A10000D010008BC
:0C1A14000024F40010000000010000009D
:0400000508000B657F
:00000001FF
